{
  "contractName": "RealEstateContract",
  "abi": [
    {
      "inputs": [],
      "stateMutability": "nonpayable",
      "type": "constructor"
    },
    {
      "anonymous": false,
      "inputs": [
        {
          "indexed": false,
          "internalType": "address",
          "name": "_owner",
          "type": "address"
        },
        {
          "indexed": false,
          "internalType": "uint256",
          "name": "_id",
          "type": "uint256"
        }
      ],
      "name": "Register",
      "type": "event"
    },
    {
      "anonymous": false,
      "inputs": [
        {
          "indexed": true,
          "internalType": "address",
          "name": "_from",
          "type": "address"
        },
        {
          "indexed": true,
          "internalType": "address",
          "name": "_to",
          "type": "address"
        },
        {
          "indexed": false,
          "internalType": "uint256",
          "name": "_id",
          "type": "uint256"
        }
      ],
      "name": "Transfer",
      "type": "event"
    },
    {
      "inputs": [
        {
          "internalType": "address",
          "name": "",
          "type": "address"
        }
      ],
      "name": "estates",
      "outputs": [
        {
          "internalType": "uint256",
          "name": "id",
          "type": "uint256"
        },
        {
          "internalType": "address",
          "name": "ownerAddress",
          "type": "address"
        },
        {
          "internalType": "string",
          "name": "landOwnerName",
          "type": "string"
        },
        {
          "internalType": "string",
          "name": "location",
          "type": "string"
        },
        {
          "internalType": "uint256",
          "name": "cost",
          "type": "uint256"
        },
        {
          "internalType": "uint256",
          "name": "area",
          "type": "uint256"
        },
        {
          "internalType": "uint256",
          "name": "lengthLand",
          "type": "uint256"
        },
        {
          "internalType": "uint256",
          "name": "widthLand",
          "type": "uint256"
        }
      ],
      "stateMutability": "view",
      "type": "function"
    },
    {
      "inputs": [],
      "name": "owner",
      "outputs": [
        {
          "internalType": "address",
          "name": "",
          "type": "address"
        }
      ],
      "stateMutability": "view",
      "type": "function"
    },
    {
      "inputs": [],
      "name": "totalEstateCounter",
      "outputs": [
        {
          "internalType": "uint256",
          "name": "",
          "type": "uint256"
        }
      ],
      "stateMutability": "view",
      "type": "function"
    },
    {
      "inputs": [
        {
          "internalType": "address",
          "name": "_landOwner",
          "type": "address"
        },
        {
          "internalType": "string",
          "name": "_landOwerName",
          "type": "string"
        },
        {
          "internalType": "string",
          "name": "_location",
          "type": "string"
        },
        {
          "internalType": "uint256",
          "name": "_cost",
          "type": "uint256"
        },
        {
          "internalType": "uint256",
          "name": "_lengthLand",
          "type": "uint256"
        },
        {
          "internalType": "uint256",
          "name": "_widthLand",
          "type": "uint256"
        }
      ],
      "name": "registerEstate",
      "outputs": [],
      "stateMutability": "nonpayable",
      "type": "function"
    },
    {
      "inputs": [
        {
          "internalType": "address",
          "name": "_buyer",
          "type": "address"
        },
        {
          "internalType": "address",
          "name": "_seller",
          "type": "address"
        },
        {
          "internalType": "uint256",
          "name": "_ID",
          "type": "uint256"
        },
        {
          "internalType": "string",
          "name": "sellerName",
          "type": "string"
        }
      ],
      "name": "transferEstate",
      "outputs": [
        {
          "internalType": "bool",
          "name": "",
          "type": "bool"
        }
      ],
      "stateMutability": "nonpayable",
      "type": "function"
    },
    {
      "inputs": [
        {
          "internalType": "address",
          "name": "_estateOwner",
          "type": "address"
        }
      ],
      "name": "getEstate",
      "outputs": [
        {
          "internalType": "uint256",
          "name": "",
          "type": "uint256"
        },
        {
          "internalType": "string",
          "name": "",
          "type": "string"
        },
        {
          "internalType": "string",
          "name": "",
          "type": "string"
        },
        {
          "internalType": "uint256",
          "name": "",
          "type": "uint256"
        },
        {
          "internalType": "uint256",
          "name": "",
          "type": "uint256"
        },
        {
          "internalType": "uint256",
          "name": "",
          "type": "uint256"
        },
        {
          "internalType": "uint256",
          "name": "",
          "type": "uint256"
        }
      ],
      "stateMutability": "view",
      "type": "function"
    },
    {
      "inputs": [],
      "name": "getNumberOfEstates",
      "outputs": [
        {
          "internalType": "uint256",
          "name": "",
          "type": "uint256"
        }
      ],
      "stateMutability": "view",
      "type": "function"
    },
    {
      "inputs": [
        {
          "internalType": "address",
          "name": "_landOwner",
          "type": "address"
        }
      ],
      "name": "findEstateId",
      "outputs": [
        {
          "internalType": "uint256",
          "name": "",
          "type": "uint256"
        }
      ],
      "stateMutability": "view",
      "type": "function"
    }
  ],
  "bytecode": "0x608060405234801561001057600080fd5b50336000806101000a81548173ffffffffffffffffffffffffffffffffffffffff021916908373ffffffffffffffffffffffffffffffffffffffff16021790555060006001819055506116cf806100686000396000f3fe608060405234801561001057600080fd5b50600436106100885760003560e01c80637d84c8bd1161005b5780637d84c8bd1461012f5780638da5cb5b1461014b578063f4ef4f9b14610169578063f65d23f51461019957610088565b806324a756011461008d578063257e2f84146100c3578063474f5b62146100e15780634c9f35db14610111575b600080fd5b6100a760048036038101906100a29190610f32565b6101d0565b6040516100ba9796959493929190611011565b60405180910390f35b6100cb610413565b6040516100d8919061108e565b60405180910390f35b6100fb60048036038101906100f6919061120a565b610419565b60405161010891906112a8565b60405180910390f35b6101196108fb565b604051610126919061108e565b60405180910390f35b610149600480360381019061014491906112c3565b610905565b005b610153610b61565b6040516101609190611397565b60405180910390f35b610183600480360381019061017e9190610f32565b610b85565b604051610190919061108e565b60405180910390f35b6101b360048036038101906101ae9190610f32565b610bd1565b6040516101c79897969594939291906113b2565b60405180910390f35b60006060806000806000806000600260008a73ffffffffffffffffffffffffffffffffffffffff1673ffffffffffffffffffffffffffffffffffffffff16815260200190815260200160002060405180610100016040529081600082015481526020016001820160009054906101000a900473ffffffffffffffffffffffffffffffffffffffff1673ffffffffffffffffffffffffffffffffffffffff1673ffffffffffffffffffffffffffffffffffffffff1681526020016002820180546102989061146d565b80601f01602080910402602001604051908101604052809291908181526020018280546102c49061146d565b80156103115780601f106102e657610100808354040283529160200191610311565b820191906000526020600020905b8154815290600101906020018083116102f457829003601f168201915b5050505050815260200160038201805461032a9061146d565b80601f01602080910402602001604051908101604052809291908181526020018280546103569061146d565b80156103a35780601f10610378576101008083540402835291602001916103a3565b820191906000526020600020905b81548152906001019060200180831161038657829003601f168201915b50505050508152602001600482015481526020016005820154815260200160068201548152602001600782015481525050905080600001518160400151826060015183608001518460c001518560e001518660a00151975097509750975097509750975050919395979092949650565b60015481565b60008060009054906101000a900473ffffffffffffffffffffffffffffffffffffffff1673ffffffffffffffffffffffffffffffffffffffff163373ffffffffffffffffffffffffffffffffffffffff161461047457600080fd5b82600260008673ffffffffffffffffffffffffffffffffffffffff1673ffffffffffffffffffffffffffffffffffffffff16815260200190815260200160002060000154146104c257600080fd5b6040518061010001604052808481526020018673ffffffffffffffffffffffffffffffffffffffff168152602001838152602001600260008773ffffffffffffffffffffffffffffffffffffffff1673ffffffffffffffffffffffffffffffffffffffff16815260200190815260200160002060030180546105439061146d565b80601f016020809104026020016040519081016040528092919081815260200182805461056f9061146d565b80156105bc5780601f10610591576101008083540402835291602001916105bc565b820191906000526020600020905b81548152906001019060200180831161059f57829003601f168201915b50505050508152602001600260008773ffffffffffffffffffffffffffffffffffffffff1673ffffffffffffffffffffffffffffffffffffffff168152602001908152602001600020600401548152602001600260008773ffffffffffffffffffffffffffffffffffffffff1673ffffffffffffffffffffffffffffffffffffffff168152602001908152602001600020600501548152602001600260008773ffffffffffffffffffffffffffffffffffffffff1673ffffffffffffffffffffffffffffffffffffffff168152602001908152602001600020600601548152602001600260008773ffffffffffffffffffffffffffffffffffffffff1673ffffffffffffffffffffffffffffffffffffffff16815260200190815260200160002060070154815250600260008773ffffffffffffffffffffffffffffffffffffffff1673ffffffffffffffffffffffffffffffffffffffff1681526020019081526020016000206000820151816000015560208201518160010160006101000a81548173ffffffffffffffffffffffffffffffffffffffff021916908373ffffffffffffffffffffffffffffffffffffffff1602179055506040820151816002019080519060200190610790929190610ddd565b5060608201518160030190805190602001906107ad929190610ddd565b506080820151816004015560a0820151816005015560c0820151816006015560e08201518160070155905050600260008573ffffffffffffffffffffffffffffffffffffffff1673ffffffffffffffffffffffffffffffffffffffff1681526020019081526020016000206000808201600090556001820160006101000a81549073ffffffffffffffffffffffffffffffffffffffff02191690556002820160006108589190610e63565b6003820160006108689190610e63565b600482016000905560058201600090556006820160009055600782016000905550508473ffffffffffffffffffffffffffffffffffffffff168473ffffffffffffffffffffffffffffffffffffffff167fddf252ad1be2c89b69c2b068fc378daa952ba7f163c4a11628f55a4df523b3ef856040516108e7919061108e565b60405180910390a360019050949350505050565b6000600154905090565b60008054906101000a900473ffffffffffffffffffffffffffffffffffffffff1673ffffffffffffffffffffffffffffffffffffffff163373ffffffffffffffffffffffffffffffffffffffff161461095d57600080fd5b60008054906101000a900473ffffffffffffffffffffffffffffffffffffffff1673ffffffffffffffffffffffffffffffffffffffff163373ffffffffffffffffffffffffffffffffffffffff16146109b557600080fd5b600180546109c391906114ce565b60018190555060006109d58383610d49565b905060405180610100016040528060015481526020018873ffffffffffffffffffffffffffffffffffffffff16815260200187815260200186815260200185815260200182815260200184815260200183815250600260008973ffffffffffffffffffffffffffffffffffffffff1673ffffffffffffffffffffffffffffffffffffffff1681526020019081526020016000206000820151816000015560208201518160010160006101000a81548173ffffffffffffffffffffffffffffffffffffffff021916908373ffffffffffffffffffffffffffffffffffffffff1602179055506040820151816002019080519060200190610ad5929190610ddd565b506060820151816003019080519060200190610af2929190610ddd565b506080820151816004015560a0820151816005015560c0820151816006015560e082015181600701559050507e7dc6ab80cc84c043b7b8d4fcafc802187470087f7ea7fccd2e17aecd0256a187600154604051610b50929190611524565b60405180910390a150505050505050565b60008054906101000a900473ffffffffffffffffffffffffffffffffffffffff1681565b6000600260008373ffffffffffffffffffffffffffffffffffffffff1673ffffffffffffffffffffffffffffffffffffffff168152602001908152602001600020600001549050919050565b60026020528060005260406000206000915090508060000154908060010160009054906101000a900473ffffffffffffffffffffffffffffffffffffffff1690806002018054610c209061146d565b80601f0160208091040260200160405190810160405280929190818152602001828054610c4c9061146d565b8015610c995780601f10610c6e57610100808354040283529160200191610c99565b820191906000526020600020905b815481529060010190602001808311610c7c57829003601f168201915b505050505090806003018054610cae9061146d565b80601f0160208091040260200160405190810160405280929190818152602001828054610cda9061146d565b8015610d275780601f10610cfc57610100808354040283529160200191610d27565b820191906000526020600020905b815481529060010190602001808311610d0a57829003601f168201915b5050505050908060040154908060050154908060060154908060070154905088565b600080610d568484610d62565b90508091505092915050565b600080831415610d755760009050610dd7565b60008284610d83919061154d565b9050828482610d9291906115d6565b14610dd2576040517f08c379a0000000000000000000000000000000000000000000000000000000008152600401610dc990611679565b60405180910390fd5b809150505b92915050565b828054610de99061146d565b90600052602060002090601f016020900481019282610e0b5760008555610e52565b82601f10610e2457805160ff1916838001178555610e52565b82800160010185558215610e52579182015b82811115610e51578251825591602001919060010190610e36565b5b509050610e5f9190610ea3565b5090565b508054610e6f9061146d565b6000825580601f10610e815750610ea0565b601f016020900490600052602060002090810190610e9f9190610ea3565b5b50565b5b80821115610ebc576000816000905550600101610ea4565b5090565b6000604051905090565b600080fd5b600080fd5b600073ffffffffffffffffffffffffffffffffffffffff82169050919050565b6000610eff82610ed4565b9050919050565b610f0f81610ef4565b8114610f1a57600080fd5b50565b600081359050610f2c81610f06565b92915050565b600060208284031215610f4857610f47610eca565b5b6000610f5684828501610f1d565b91505092915050565b6000819050919050565b610f7281610f5f565b82525050565b600081519050919050565b600082825260208201905092915050565b60005b83811015610fb2578082015181840152602081019050610f97565b83811115610fc1576000848401525b50505050565b6000601f19601f8301169050919050565b6000610fe382610f78565b610fed8185610f83565b9350610ffd818560208601610f94565b61100681610fc7565b840191505092915050565b600060e082019050611026600083018a610f69565b81810360208301526110388189610fd8565b9050818103604083015261104c8188610fd8565b905061105b6060830187610f69565b6110686080830186610f69565b61107560a0830185610f69565b61108260c0830184610f69565b98975050505050505050565b60006020820190506110a36000830184610f69565b92915050565b6110b281610f5f565b81146110bd57600080fd5b50565b6000813590506110cf816110a9565b92915050565b600080fd5b600080fd5b7f4e487b7100000000000000000000000000000000000000000000000000000000600052604160045260246000fd5b61111782610fc7565b810181811067ffffffffffffffff82111715611136576111356110df565b5b80604052505050565b6000611149610ec0565b9050611155828261110e565b919050565b600067ffffffffffffffff821115611175576111746110df565b5b61117e82610fc7565b9050602081019050919050565b82818337600083830152505050565b60006111ad6111a88461115a565b61113f565b9050828152602081018484840111156111c9576111c86110da565b5b6111d484828561118b565b509392505050565b600082601f8301126111f1576111f06110d5565b5b813561120184826020860161119a565b91505092915050565b6000806000806080858703121561122457611223610eca565b5b600061123287828801610f1d565b945050602061124387828801610f1d565b9350506040611254878288016110c0565b925050606085013567ffffffffffffffff81111561127557611274610ecf565b5b611281878288016111dc565b91505092959194509250565b60008115159050919050565b6112a28161128d565b82525050565b60006020820190506112bd6000830184611299565b92915050565b60008060008060008060c087890312156112e0576112df610eca565b5b60006112ee89828a01610f1d565b965050602087013567ffffffffffffffff81111561130f5761130e610ecf565b5b61131b89828a016111dc565b955050604087013567ffffffffffffffff81111561133c5761133b610ecf565b5b61134889828a016111dc565b945050606061135989828a016110c0565b935050608061136a89828a016110c0565b92505060a061137b89828a016110c0565b9150509295509295509295565b61139181610ef4565b82525050565b60006020820190506113ac6000830184611388565b92915050565b6000610100820190506113c8600083018b610f69565b6113d5602083018a611388565b81810360408301526113e78189610fd8565b905081810360608301526113fb8188610fd8565b905061140a6080830187610f69565b61141760a0830186610f69565b61142460c0830185610f69565b61143160e0830184610f69565b9998505050505050505050565b7f4e487b7100000000000000000000000000000000000000000000000000000000600052602260045260246000fd5b6000600282049050600182168061148557607f821691505b602082108114156114995761149861143e565b5b50919050565b7f4e487b7100000000000000000000000000000000000000000000000000000000600052601160045260246000fd5b60006114d982610f5f565b91506114e483610f5f565b9250827fffffffffffffffffffffffffffffffffffffffffffffffffffffffffffffffff038211156115195761151861149f565b5b828201905092915050565b60006040820190506115396000830185611388565b6115466020830184610f69565b9392505050565b600061155882610f5f565b915061156383610f5f565b9250817fffffffffffffffffffffffffffffffffffffffffffffffffffffffffffffffff048311821515161561159c5761159b61149f565b5b828202905092915050565b7f4e487b7100000000000000000000000000000000000000000000000000000000600052601260045260246000fd5b60006115e182610f5f565b91506115ec83610f5f565b9250826115fc576115fb6115a7565b5b828204905092915050565b7f536166654d6174683a206d756c7469706c69636174696f6e206f766572666c6f60008201527f7700000000000000000000000000000000000000000000000000000000000000602082015250565b6000611663602183610f83565b915061166e82611607565b604082019050919050565b6000602082019050818103600083015261169281611656565b905091905056fea26469706673582212208eb2e244b1c50357660fd4baf70795b1d9988ed92d4940b4d04cfb0fbf06367564736f6c634300080a0033",
  "immutableReferences": {},
  "source": "// SPDX-License-Identifier: MIT\npragma solidity >=0.5.16 <0.9.0;\n///@title for saving of properties of the land of a country\n///@notice you can use this contract for registraton of lands and selling them\n///@dev all function calls in this contract are currently implemented without side effects.\nimport \"./SafeMath.sol\";\n\n\ncontract RealEstateContract{\n //Declare the struct\n// Estate struct keeps the information of the land\n\n    struct Estate {\n     uint id;\n     address ownerAddress;\n     string landOwnerName;\n     string location;\n     uint cost;\n     uint area;\n     uint lengthLand;\n     uint widthLand;\n    }\n\n    //set the owner of the contract to whoever deployed it, in this contract it is the government\n       address public owner;\n       uint public totalEstateCounter;\n\n       constructor()\n    {\n      owner = msg.sender;\n      totalEstateCounter = 0;\n    }\n     //Modifier\n    //for functions to be available only to the government ,create a modifier called isOwner\n     modifier isOwner\n    {\n        require(msg.sender == owner);\n        _;\n    }\n    event Register(address  _owner, uint _id);\n    event Transfer(address indexed _from, address indexed _to, uint _id);\n\n    ///@notice SafeMath is a library for mathematical operations\n using SafeMath for uint;\n  //Mapping\n//link addresses their esate structs through this mapping\nmapping (address => Estate) public estates;\n\n\n///@notice getArea uses SafeMath's function to return area of the land\nfunction getArea(uint _lengthLand , uint _widthLand) internal pure returns(uint){\n\n    uint area = SafeMath.mul(_lengthLand, _widthLand);\n    return area;\n    }\n///@notice registerEstate function uses details of struct to register the land\n//push the estate to the governments estates mapping and emit the register event.\nfunction registerEstate(address _landOwner , string memory _landOwerName,string memory _location, uint _cost ,uint _lengthLand , uint _widthLand)  public isOwner\n   isOwner {\n        totalEstateCounter = totalEstateCounter + 1;\n        uint Area = getArea(_lengthLand, _widthLand);\n       estates[_landOwner] = Estate(\n            {\n                id: totalEstateCounter,\n                ownerAddress: _landOwner,\n                landOwnerName: _landOwerName,\n                location: _location,\n                cost: _cost,\n                lengthLand : _lengthLand,\n                widthLand: _widthLand,\n                area : Area\n            });\n        emit Register(_landOwner, totalEstateCounter);\n}\n\n///@notice transferEstate function is used for transfering the estate\nfunction transferEstate(address _buyer, address _seller, uint _ID , string memory sellerName ) public isOwner returns (bool){\n            require(estates[_seller].id == _ID);\n              estates[_buyer] = Estate (\n                  {\n                    ownerAddress:_buyer,\n                    landOwnerName:sellerName,\n                    location: estates[_seller].location,\n                    cost: estates[_seller].cost,\n                    lengthLand:estates[_seller].lengthLand,\n                    widthLand: estates[_seller].widthLand,\n                    area: estates[_seller].area,\n                    id: _ID\n                  });\n                delete estates[_seller];\n\n                emit Transfer(_seller, _buyer, _ID);\n                return true;\n}\n    ///@notice getEstate function is used to view the estate details of someones account\nfunction getEstate(address _estateOwner) public view returns (uint ,string memory, string memory, uint, uint ,uint, uint)\n    {\n        Estate memory e = estates [_estateOwner];\n        return(e.id , e.landOwnerName, e.location, e.cost, e.lengthLand, e.widthLand, e.area);\n}\n///@notice getNumberOfEstates function is used to retern the number of estates the account has\nfunction getNumberOfEstates() public  view returns (uint)\n    {\n        return totalEstateCounter;\n}\n///@notice findEstateId function is used to retern the id of the estate by using its address\nfunction findEstateId(address _landOwner) public view returns(uint){\n      return (estates [_landOwner].id);\n}\n}",
  "sourcePath": "/home/faeza/blockchain-developer-bootcamp/contracts/RealEstateContract.sol",
  "compiler": {
    "name": "solc",
    "version": "0.8.10+commit.fc410830.Emscripten.clang"
  },
  "schemaVersion": "3.4.4",
  "updatedAt": "2022-01-14T10:40:00.710Z",
  "devdoc": {
    "kind": "dev",
    "methods": {},
    "version": 1
  },
  "userdoc": {
    "kind": "user",
    "methods": {
      "findEstateId(address)": {
        "notice": "findEstateId function is used to retern the id of the estate by using its address"
      },
      "getEstate(address)": {
        "notice": "getEstate function is used to view the estate details of someones account"
      },
      "getNumberOfEstates()": {
        "notice": "getNumberOfEstates function is used to retern the number of estates the account has"
      },
      "registerEstate(address,string,string,uint256,uint256,uint256)": {
        "notice": "registerEstate function uses details of struct to register the land"
      },
      "transferEstate(address,address,uint256,string)": {
        "notice": "transferEstate function is used for transfering the estate"
      }
    },
    "version": 1
  }
}